{
    "contractName": "Marketplace",
    "abi": [
        {
            "inputs": [
                {
                    "internalType": "uint256",
                    "name": "_feePercent",
                    "type": "uint256"
                }
            ],
            "stateMutability": "nonpayable",
            "type": "constructor"
        },
        {
            "anonymous": false,
            "inputs": [
                {
                    "indexed": false,
                    "internalType": "uint256",
                    "name": "itemId",
                    "type": "uint256"
                },
                {
                    "indexed": true,
                    "internalType": "address",
                    "name": "nft",
                    "type": "address"
                },
                {
                    "indexed": false,
                    "internalType": "uint256",
                    "name": "tokenId",
                    "type": "uint256"
                },
                {
                    "indexed": false,
                    "internalType": "uint256",
                    "name": "price",
                    "type": "uint256"
                },
                {
                    "indexed": true,
                    "internalType": "address",
                    "name": "seller",
                    "type": "address"
                },
                {
                    "indexed": true,
                    "internalType": "address",
                    "name": "buyer",
                    "type": "address"
                }
            ],
            "name": "Bought",
            "type": "event"
        },
        {
            "anonymous": false,
            "inputs": [
                {
                    "indexed": false,
                    "internalType": "uint256",
                    "name": "itemId",
                    "type": "uint256"
                },
                {
                    "indexed": true,
                    "internalType": "address",
                    "name": "nft",
                    "type": "address"
                },
                {
                    "indexed": false,
                    "internalType": "uint256",
                    "name": "tokenId",
                    "type": "uint256"
                },
                {
                    "indexed": false,
                    "internalType": "uint256",
                    "name": "price",
                    "type": "uint256"
                },
                {
                    "indexed": true,
                    "internalType": "address",
                    "name": "seller",
                    "type": "address"
                }
            ],
            "name": "Offered",
            "type": "event"
        },
        {
            "inputs": [],
            "name": "feeAccount",
            "outputs": [
                {
                    "internalType": "address payable",
                    "name": "",
                    "type": "address"
                }
            ],
            "stateMutability": "view",
            "type": "function"
        },
        {
            "inputs": [],
            "name": "feePercent",
            "outputs": [
                {
                    "internalType": "uint256",
                    "name": "",
                    "type": "uint256"
                }
            ],
            "stateMutability": "view",
            "type": "function"
        },
        {
            "inputs": [],
            "name": "getAvailableItems",
            "outputs": [
                {
                    "components": [
                        {
                            "internalType": "uint256",
                            "name": "itemId",
                            "type": "uint256"
                        },
                        {
                            "internalType": "contract IERC721",
                            "name": "nft",
                            "type": "address"
                        },
                        {
                            "internalType": "uint256",
                            "name": "tokenId",
                            "type": "uint256"
                        },
                        {
                            "internalType": "uint256",
                            "name": "price",
                            "type": "uint256"
                        },
                        {
                            "internalType": "address payable",
                            "name": "seller",
                            "type": "address"
                        },
                        {
                            "internalType": "address payable",
                            "name": "buyer",
                            "type": "address"
                        },
                        {
                            "internalType": "bool",
                            "name": "sold",
                            "type": "bool"
                        }
                    ],
                    "internalType": "struct Marketplace.Item[]",
                    "name": "",
                    "type": "tuple[]"
                }
            ],
            "stateMutability": "view",
            "type": "function"
        },
        {
            "inputs": [
                {
                    "internalType": "address",
                    "name": "owner",
                    "type": "address"
                }
            ],
            "name": "getListingsByOwner",
            "outputs": [
                {
                    "components": [
                        {
                            "internalType": "uint256",
                            "name": "itemId",
                            "type": "uint256"
                        },
                        {
                            "internalType": "contract IERC721",
                            "name": "nft",
                            "type": "address"
                        },
                        {
                            "internalType": "uint256",
                            "name": "tokenId",
                            "type": "uint256"
                        },
                        {
                            "internalType": "uint256",
                            "name": "price",
                            "type": "uint256"
                        },
                        {
                            "internalType": "address payable",
                            "name": "seller",
                            "type": "address"
                        },
                        {
                            "internalType": "address payable",
                            "name": "buyer",
                            "type": "address"
                        },
                        {
                            "internalType": "bool",
                            "name": "sold",
                            "type": "bool"
                        }
                    ],
                    "internalType": "struct Marketplace.Item[]",
                    "name": "",
                    "type": "tuple[]"
                }
            ],
            "stateMutability": "view",
            "type": "function"
        },
        {
            "inputs": [
                {
                    "internalType": "address",
                    "name": "buyer",
                    "type": "address"
                }
            ],
            "name": "getPurchasedItems",
            "outputs": [
                {
                    "components": [
                        {
                            "internalType": "uint256",
                            "name": "itemId",
                            "type": "uint256"
                        },
                        {
                            "internalType": "contract IERC721",
                            "name": "nft",
                            "type": "address"
                        },
                        {
                            "internalType": "uint256",
                            "name": "tokenId",
                            "type": "uint256"
                        },
                        {
                            "internalType": "uint256",
                            "name": "price",
                            "type": "uint256"
                        },
                        {
                            "internalType": "address payable",
                            "name": "seller",
                            "type": "address"
                        },
                        {
                            "internalType": "address payable",
                            "name": "buyer",
                            "type": "address"
                        },
                        {
                            "internalType": "bool",
                            "name": "sold",
                            "type": "bool"
                        }
                    ],
                    "internalType": "struct Marketplace.Item[]",
                    "name": "",
                    "type": "tuple[]"
                }
            ],
            "stateMutability": "view",
            "type": "function"
        },
        {
            "inputs": [
                {
                    "internalType": "uint256",
                    "name": "_itemId",
                    "type": "uint256"
                }
            ],
            "name": "getTotalPrice",
            "outputs": [
                {
                    "internalType": "uint256",
                    "name": "",
                    "type": "uint256"
                }
            ],
            "stateMutability": "view",
            "type": "function"
        },
        {
            "inputs": [],
            "name": "itemCount",
            "outputs": [
                {
                    "internalType": "uint256",
                    "name": "",
                    "type": "uint256"
                }
            ],
            "stateMutability": "view",
            "type": "function"
        },
        {
            "inputs": [
                {
                    "internalType": "uint256",
                    "name": "",
                    "type": "uint256"
                }
            ],
            "name": "items",
            "outputs": [
                {
                    "internalType": "uint256",
                    "name": "itemId",
                    "type": "uint256"
                },
                {
                    "internalType": "contract IERC721",
                    "name": "nft",
                    "type": "address"
                },
                {
                    "internalType": "uint256",
                    "name": "tokenId",
                    "type": "uint256"
                },
                {
                    "internalType": "uint256",
                    "name": "price",
                    "type": "uint256"
                },
                {
                    "internalType": "address payable",
                    "name": "seller",
                    "type": "address"
                },
                {
                    "internalType": "address payable",
                    "name": "buyer",
                    "type": "address"
                },
                {
                    "internalType": "bool",
                    "name": "sold",
                    "type": "bool"
                }
            ],
            "stateMutability": "view",
            "type": "function"
        },
        {
            "inputs": [
                {
                    "internalType": "contract IERC721",
                    "name": "_nft",
                    "type": "address"
                },
                {
                    "internalType": "uint256",
                    "name": "_tokenId",
                    "type": "uint256"
                },
                {
                    "internalType": "uint256",
                    "name": "_price",
                    "type": "uint256"
                }
            ],
            "name": "makeItem",
            "outputs": [],
            "stateMutability": "nonpayable",
            "type": "function"
        },
        {
            "inputs": [
                {
                    "internalType": "uint256",
                    "name": "_itemId",
                    "type": "uint256"
                }
            ],
            "name": "purchaseItem",
            "outputs": [],
            "stateMutability": "payable",
            "type": "function"
        }
    ],
    "bytecode": "60c060405234801561001057600080fd5b5060405161103e38038061103e83398101604081905261002f91610040565b60016000553360805260a052610059565b60006020828403121561005257600080fd5b5051919050565b60805160a051610fb261008c60003960008181610183015261080101526000818161011301526109cc0152610fb26000f3fe6080604052600436106100915760003560e01c80637fd6f15c116100595780637fd6f15c14610171578063bfb231d2146101a5578063ca7dd37514610255578063d38ea5bf14610275578063fa00afc71461028a57600080fd5b80630c43d6f31461009657806313292c20146100c1578063485f69a1146100e157806365e17c9d146101015780636bfb0d011461014d575b600080fd5b3480156100a257600080fd5b506100ab6102aa565b6040516100b89190610da7565b60405180910390f35b3480156100cd57600080fd5b506100ab6100dc366004610e50565b61043a565b3480156100ed57600080fd5b506100ab6100fc366004610e50565b61061f565b34801561010d57600080fd5b506101357f000000000000000000000000000000000000000000000000000000000000000081565b6040516001600160a01b0390911681526020016100b8565b34801561015957600080fd5b5061016360015481565b6040519081526020016100b8565b34801561017d57600080fd5b506101637f000000000000000000000000000000000000000000000000000000000000000081565b3480156101b157600080fd5b506102126101c0366004610e74565b600260208190526000918252604090912080546001820154928201546003830154600484015460059094015492946001600160a01b03908116949293919281169190811690600160a01b900460ff1687565b604080519788526001600160a01b03968716602089015287019490945260608601929092528316608085015290911660a0830152151560c082015260e0016100b8565b34801561026157600080fd5b50610163610270366004610e74565b6107f8565b610288610283366004610e74565b610852565b005b34801561029657600080fd5b506102886102a5366004610e8d565b610b2e565b6060600060015b60015481116102fa57600081815260026020526040902060050154600160a01b900460ff166102e857816102e481610ed8565b9250505b806102f281610ed8565b9150506102b1565b5060008167ffffffffffffffff81111561031657610316610ef1565b60405190808252806020026020018201604052801561034f57816020015b61033c610d6b565b8152602001906001900390816103345790505b509050600060015b600154811161043157600081815260026020526040902060050154600160a01b900460ff1661041f57600081815260026020818152604092839020835160e0810185528154815260018201546001600160a01b039081169382019390935292810154938301939093526003830154606083015260048301548116608083015260059092015491821660a0820152600160a01b90910460ff16151560c0820152838361040181610ed8565b94508151811061041357610413610f07565b60200260200101819052505b8061042981610ed8565b915050610357565b50909392505050565b6060600060015b60015481116104b4576000818152600260205260409020600401546001600160a01b03858116911614801561048f5750600081815260026020526040902060050154600160a01b900460ff16155b156104a2578161049e81610ed8565b9250505b806104ac81610ed8565b915050610441565b5060008167ffffffffffffffff8111156104d0576104d0610ef1565b60405190808252806020026020018201604052801561050957816020015b6104f6610d6b565b8152602001906001900390816104ee5790505b509050600060015b6001548111610615576000818152600260205260409020600401546001600160a01b03878116911614801561055f5750600081815260026020526040902060050154600160a01b900460ff16155b1561060357600081815260026020818152604092839020835160e0810185528154815260018201546001600160a01b039081169382019390935292810154938301939093526003830154606083015260048301548116608083015260059092015491821660a0820152600160a01b90910460ff16151560c082015283836105e581610ed8565b9450815181106105f7576105f7610f07565b60200260200101819052505b8061060d81610ed8565b915050610511565b5090949350505050565b6060600060015b600154811161069857600081815260026020526040902060050154600160a01b900460ff16801561067357506000818152600260205260409020600501546001600160a01b038581169116145b15610686578161068281610ed8565b9250505b8061069081610ed8565b915050610626565b5060008167ffffffffffffffff8111156106b4576106b4610ef1565b6040519080825280602002602001820160405280156106ed57816020015b6106da610d6b565b8152602001906001900390816106d25790505b509050600060015b600154811161061557600081815260026020526040902060050154600160a01b900460ff16801561074257506000818152600260205260409020600501546001600160a01b038781169116145b156107e657600081815260026020818152604092839020835160e0810185528154815260018201546001600160a01b039081169382019390935292810154938301939093526003830154606083015260048301548116608083015260059092015491821660a0820152600160a01b90910460ff16151560c082015283836107c881610ed8565b9450815181106107da576107da610f07565b60200260200101819052505b806107f081610ed8565b9150506106f5565b600060646108267f000000000000000000000000000000000000000000000000000000000000000082610f1d565b6000848152600260205260409020600301546108429190610f30565b61084c9190610f47565b92915050565b61085a610d12565b6000610865826107f8565b6000838152600260205260409020909150821580159061088757506001548311155b6108cd5760405162461bcd60e51b81526020600482015260126024820152711a5d195b48191bd95cdb89dd08195e1a5cdd60721b60448201526064015b60405180910390fd5b813410156109395760405162461bcd60e51b815260206004820152603360248201527f6e6f7420656e6f75676820657468657220746f20636f766572206974656d20706044820152727269636520616e64206d61726b65742066656560681b60648201526084016108c4565b6005810154600160a01b900460ff16156109895760405162461bcd60e51b81526020600482015260116024820152701a5d195b48185b1c9958591e481cdbdb19607a1b60448201526064016108c4565b600481015460038201546040516001600160a01b039092169181156108fc0291906000818181858888f193505050501580156109c9573d6000803e3d6000fd5b507f00000000000000000000000000000000000000000000000000000000000000006001600160a01b03166108fc826003015484610a079190610f69565b6040518115909202916000818181858888f19350505050158015610a2f573d6000803e3d6000fd5b506005810180546001600160a81b03191633908117600160a01b17909155600182015460028301546040516323b872dd60e01b8152306004820152602481019390935260448301526001600160a01b0316906323b872dd90606401600060405180830381600087803b158015610aa457600080fd5b505af1158015610ab8573d6000803e3d6000fd5b50505050600481015460018201546002830154600384015460408051888152602081019390935282015233926001600160a01b039081169216907f8b4c9c8a607d67b321582dd8461041b1dc2ceeca70c8b7f37f8e02095cf2e76d9060600160405180910390a45050610b2b6001600055565b50565b610b36610d12565b60008111610b865760405162461bcd60e51b815260206004820152601f60248201527f5072696365206d7573742062652067726561746572207468616e207a65726f0060448201526064016108c4565b60018054906000610b9683610ed8565b90915550506040516323b872dd60e01b8152336004820152306024820152604481018390526001600160a01b038416906323b872dd90606401600060405180830381600087803b158015610be957600080fd5b505af1158015610bfd573d6000803e3d6000fd5b50506040805160e081018252600180548083526001600160a01b0389811660208086018281528688018c815260608089018d81523360808b01818152600060a08d0181815260c08e018281529b82526002808a52918f90209d518e5596518d8d018054918c166001600160a01b03199283161790559551908d0155915160038c0155905160048b018054918916919094161790925591516005909801805496511515600160a01b026001600160a81b03199097169890951697909717949094179092559254855190815290810189905293840187905291945092507f655a0cf9c8db81512be9a76dc1c5ae5380b8816ce6ad659cd61b715e2999d59a910160405180910390a3610d0d6001600055565b505050565b600260005403610d645760405162461bcd60e51b815260206004820152601f60248201527f5265656e7472616e637947756172643a207265656e7472616e742063616c6c0060448201526064016108c4565b6002600055565b6040805160e081018252600080825260208201819052918101829052606081018290526080810182905260a0810182905260c081019190915290565b602080825282518282018190526000919060409081850190868401855b82811015610e2e57815180518552868101516001600160a01b039081168887015286820151878701526060808301519087015260808083015182169087015260a0808301519091169086015260c09081015115159085015260e09093019290850190600101610dc4565b5091979650505050505050565b6001600160a01b0381168114610b2b57600080fd5b600060208284031215610e6257600080fd5b8135610e6d81610e3b565b9392505050565b600060208284031215610e8657600080fd5b5035919050565b600080600060608486031215610ea257600080fd5b8335610ead81610e3b565b95602085013595506040909401359392505050565b634e487b7160e01b600052601160045260246000fd5b600060018201610eea57610eea610ec2565b5060010190565b634e487b7160e01b600052604160045260246000fd5b634e487b7160e01b600052603260045260246000fd5b8082018082111561084c5761084c610ec2565b808202811582820484141761084c5761084c610ec2565b600082610f6457634e487b7160e01b600052601260045260246000fd5b500490565b8181038181111561084c5761084c610ec256fea26469706673582212205d85a72d684052ccf186d6db853aeac90fb3af7e0716e252f1bef118bff113a864736f6c63430008130033",
    "sourcePath": "c:/Users/ducvan/Downloads/DOANTOTNGHIEP_DUC/graduation-thesis-be-bl/contracts/marketplace.sol",
    "compiler": {
        "name": "solc",
        "version": "0.8.19+commit.7dd6d404"
    },
    "functionHashes": {
        "feeAccount()": "65e17c9d",
        "feePercent()": "7fd6f15c",
        "getAvailableItems()": "0c43d6f3",
        "getListingsByOwner(address)": "13292c20",
        "getPurchasedItems(address)": "485f69a1",
        "getTotalPrice(uint256)": "ca7dd375",
        "itemCount()": "6bfb0d01",
        "items(uint256)": "bfb231d2",
        "makeItem(address,uint256,uint256)": "fa00afc7",
        "purchaseItem(uint256)": "d38ea5bf"
    },
    "gasEstimates": {
        "creation": {
            "codeDepositCost": "803600",
            "executionCost": "infinite",
            "totalCost": "infinite"
        },
        "external": {
            "feeAccount()": "infinite",
            "feePercent()": "infinite",
            "getAvailableItems()": "19809",
            "getListingsByOwner(address)": "22219",
            "getPurchasedItems(address)": "22238",
            "getTotalPrice(uint256)": "infinite",
            "itemCount()": "2384",
            "items(uint256)": "13262",
            "makeItem(address,uint256,uint256)": "infinite",
            "purchaseItem(uint256)": "infinite"
        }
    }
}