{
    "contractName": "NFT",
    "abi": [
        {
            "inputs": [
                {
                    "internalType": "string",
                    "name": "_name",
                    "type": "string"
                },
                {
                    "internalType": "string",
                    "name": "_symbol",
                    "type": "string"
                }
            ],
            "stateMutability": "nonpayable",
            "type": "constructor"
        },
        {
            "anonymous": false,
            "inputs": [
                {
                    "indexed": true,
                    "internalType": "address",
                    "name": "owner",
                    "type": "address"
                },
                {
                    "indexed": true,
                    "internalType": "address",
                    "name": "approved",
                    "type": "address"
                },
                {
                    "indexed": true,
                    "internalType": "uint256",
                    "name": "tokenId",
                    "type": "uint256"
                }
            ],
            "name": "Approval",
            "type": "event"
        },
        {
            "anonymous": false,
            "inputs": [
                {
                    "indexed": true,
                    "internalType": "address",
                    "name": "owner",
                    "type": "address"
                },
                {
                    "indexed": true,
                    "internalType": "address",
                    "name": "operator",
                    "type": "address"
                },
                {
                    "indexed": false,
                    "internalType": "bool",
                    "name": "approved",
                    "type": "bool"
                }
            ],
            "name": "ApprovalForAll",
            "type": "event"
        },
        {
            "anonymous": false,
            "inputs": [
                {
                    "indexed": true,
                    "internalType": "address",
                    "name": "from",
                    "type": "address"
                },
                {
                    "indexed": true,
                    "internalType": "address",
                    "name": "to",
                    "type": "address"
                },
                {
                    "indexed": true,
                    "internalType": "uint256",
                    "name": "tokenId",
                    "type": "uint256"
                }
            ],
            "name": "Transfer",
            "type": "event"
        },
        {
            "inputs": [
                {
                    "internalType": "address",
                    "name": "to",
                    "type": "address"
                },
                {
                    "internalType": "uint256",
                    "name": "tokenId",
                    "type": "uint256"
                }
            ],
            "name": "approve",
            "outputs": [],
            "stateMutability": "nonpayable",
            "type": "function"
        },
        {
            "inputs": [
                {
                    "internalType": "address",
                    "name": "owner",
                    "type": "address"
                }
            ],
            "name": "balanceOf",
            "outputs": [
                {
                    "internalType": "uint256",
                    "name": "",
                    "type": "uint256"
                }
            ],
            "stateMutability": "view",
            "type": "function"
        },
        {
            "inputs": [
                {
                    "internalType": "uint256",
                    "name": "tokenId",
                    "type": "uint256"
                }
            ],
            "name": "getApproved",
            "outputs": [
                {
                    "internalType": "address",
                    "name": "",
                    "type": "address"
                }
            ],
            "stateMutability": "view",
            "type": "function"
        },
        {
            "inputs": [
                {
                    "internalType": "address",
                    "name": "owner",
                    "type": "address"
                }
            ],
            "name": "getNFTsByOwner",
            "outputs": [
                {
                    "internalType": "uint256[]",
                    "name": "",
                    "type": "uint256[]"
                }
            ],
            "stateMutability": "view",
            "type": "function"
        },
        {
            "inputs": [
                {
                    "internalType": "address",
                    "name": "owner",
                    "type": "address"
                },
                {
                    "internalType": "address",
                    "name": "operator",
                    "type": "address"
                }
            ],
            "name": "isApprovedForAll",
            "outputs": [
                {
                    "internalType": "bool",
                    "name": "",
                    "type": "bool"
                }
            ],
            "stateMutability": "view",
            "type": "function"
        },
        {
            "inputs": [
                {
                    "internalType": "string",
                    "name": "_tokenURI",
                    "type": "string"
                }
            ],
            "name": "mint",
            "outputs": [
                {
                    "internalType": "uint256",
                    "name": "",
                    "type": "uint256"
                }
            ],
            "stateMutability": "nonpayable",
            "type": "function"
        },
        {
            "inputs": [],
            "name": "name",
            "outputs": [
                {
                    "internalType": "string",
                    "name": "",
                    "type": "string"
                }
            ],
            "stateMutability": "view",
            "type": "function"
        },
        {
            "inputs": [
                {
                    "internalType": "uint256",
                    "name": "tokenId",
                    "type": "uint256"
                }
            ],
            "name": "ownerOf",
            "outputs": [
                {
                    "internalType": "address",
                    "name": "",
                    "type": "address"
                }
            ],
            "stateMutability": "view",
            "type": "function"
        },
        {
            "inputs": [
                {
                    "internalType": "address",
                    "name": "from",
                    "type": "address"
                },
                {
                    "internalType": "address",
                    "name": "to",
                    "type": "address"
                },
                {
                    "internalType": "uint256",
                    "name": "tokenId",
                    "type": "uint256"
                }
            ],
            "name": "safeTransferFrom",
            "outputs": [],
            "stateMutability": "nonpayable",
            "type": "function"
        },
        {
            "inputs": [
                {
                    "internalType": "address",
                    "name": "from",
                    "type": "address"
                },
                {
                    "internalType": "address",
                    "name": "to",
                    "type": "address"
                },
                {
                    "internalType": "uint256",
                    "name": "tokenId",
                    "type": "uint256"
                },
                {
                    "internalType": "bytes",
                    "name": "data",
                    "type": "bytes"
                }
            ],
            "name": "safeTransferFrom",
            "outputs": [],
            "stateMutability": "nonpayable",
            "type": "function"
        },
        {
            "inputs": [
                {
                    "internalType": "address",
                    "name": "operator",
                    "type": "address"
                },
                {
                    "internalType": "bool",
                    "name": "approved",
                    "type": "bool"
                }
            ],
            "name": "setApprovalForAll",
            "outputs": [],
            "stateMutability": "nonpayable",
            "type": "function"
        },
        {
            "inputs": [
                {
                    "internalType": "bytes4",
                    "name": "interfaceId",
                    "type": "bytes4"
                }
            ],
            "name": "supportsInterface",
            "outputs": [
                {
                    "internalType": "bool",
                    "name": "",
                    "type": "bool"
                }
            ],
            "stateMutability": "view",
            "type": "function"
        },
        {
            "inputs": [],
            "name": "symbol",
            "outputs": [
                {
                    "internalType": "string",
                    "name": "",
                    "type": "string"
                }
            ],
            "stateMutability": "view",
            "type": "function"
        },
        {
            "inputs": [],
            "name": "tokenCount",
            "outputs": [
                {
                    "internalType": "uint256",
                    "name": "",
                    "type": "uint256"
                }
            ],
            "stateMutability": "view",
            "type": "function"
        },
        {
            "inputs": [
                {
                    "internalType": "uint256",
                    "name": "tokenId",
                    "type": "uint256"
                }
            ],
            "name": "tokenURI",
            "outputs": [
                {
                    "internalType": "string",
                    "name": "",
                    "type": "string"
                }
            ],
            "stateMutability": "view",
            "type": "function"
        },
        {
            "inputs": [
                {
                    "internalType": "address",
                    "name": "from",
                    "type": "address"
                },
                {
                    "internalType": "address",
                    "name": "to",
                    "type": "address"
                },
                {
                    "internalType": "uint256",
                    "name": "tokenId",
                    "type": "uint256"
                }
            ],
            "name": "transferFrom",
            "outputs": [],
            "stateMutability": "nonpayable",
            "type": "function"
        }
    ],
    "bytecode": "60806040523480156200001157600080fd5b5060405162001bc838038062001bc8833981016040819052620000349162000123565b818160006200004483826200021c565b5060016200005382826200021c565b5050505050620002e8565b634e487b7160e01b600052604160045260246000fd5b600082601f8301126200008657600080fd5b81516001600160401b0380821115620000a357620000a36200005e565b604051601f8301601f19908116603f01168101908282118183101715620000ce57620000ce6200005e565b81604052838152602092508683858801011115620000eb57600080fd5b600091505b838210156200010f5785820183015181830184015290820190620000f0565b600093810190920192909252949350505050565b600080604083850312156200013757600080fd5b82516001600160401b03808211156200014f57600080fd5b6200015d8683870162000074565b935060208501519150808211156200017457600080fd5b50620001838582860162000074565b9150509250929050565b600181811c90821680620001a257607f821691505b602082108103620001c357634e487b7160e01b600052602260045260246000fd5b50919050565b601f8211156200021757600081815260208120601f850160051c81016020861015620001f25750805b601f850160051c820191505b818110156200021357828155600101620001fe565b5050505b505050565b81516001600160401b038111156200023857620002386200005e565b62000250816200024984546200018d565b84620001c9565b602080601f8311600181146200028857600084156200026f5750858301515b600019600386901b1c1916600185901b17855562000213565b600085815260208120601f198616915b82811015620002b95788860151825594840194600190910190840162000298565b5085821015620002d85787850151600019600388901b60f8161c191681555b5050505050600190811b01905550565b6118d080620002f86000396000f3fe608060405234801561001057600080fd5b50600436106101005760003560e01c806395d89b4111610097578063c87b56dd11610066578063c87b56dd14610213578063d85d3d2714610226578063e2afe8b314610239578063e985e9c51461025957600080fd5b806395d89b41146101dc5780639f181b5e146101e4578063a22cb465146101ed578063b88d4fde1461020057600080fd5b806323b872dd116100d357806323b872dd1461018257806342842e0e146101955780636352211e146101a857806370a08231146101bb57600080fd5b806301ffc9a71461010557806306fdde031461012d578063081812fc14610142578063095ea7b31461016d575b600080fd5b61011861011336600461126e565b610295565b60405190151581526020015b60405180910390f35b6101356102e7565b60405161012491906112db565b6101556101503660046112ee565b610379565b6040516001600160a01b039091168152602001610124565b61018061017b366004611323565b6103a0565b005b61018061019036600461134d565b6104ba565b6101806101a336600461134d565b6104eb565b6101556101b63660046112ee565b610506565b6101ce6101c9366004611389565b610566565b604051908152602001610124565b6101356105ec565b6101ce60075481565b6101806101fb3660046113a4565b6105fb565b61018061020e36600461146c565b61060a565b6101356102213660046112ee565b610642565b6101ce6102343660046114e8565b610752565b61024c610247366004611389565b6107ac565b6040516101249190611531565b610118610267366004611575565b6001600160a01b03918216600090815260056020908152604080832093909416825291909152205460ff1690565b60006001600160e01b031982166380ac58cd60e01b14806102c657506001600160e01b03198216635b5e139f60e01b145b806102e157506301ffc9a760e01b6001600160e01b03198316145b92915050565b6060600080546102f6906115a8565b80601f0160208091040260200160405190810160405280929190818152602001828054610322906115a8565b801561036f5780601f106103445761010080835404028352916020019161036f565b820191906000526020600020905b81548152906001019060200180831161035257829003601f168201915b5050505050905090565b60006103848261095a565b506000908152600460205260409020546001600160a01b031690565b60006103ab82610506565b9050806001600160a01b0316836001600160a01b03160361041d5760405162461bcd60e51b815260206004820152602160248201527f4552433732313a20617070726f76616c20746f2063757272656e74206f776e656044820152603960f91b60648201526084015b60405180910390fd5b336001600160a01b038216148061043957506104398133610267565b6104ab5760405162461bcd60e51b815260206004820152603d60248201527f4552433732313a20617070726f76652063616c6c6572206973206e6f7420746f60448201527f6b656e206f776e6572206f7220617070726f76656420666f7220616c6c0000006064820152608401610414565b6104b583836109bc565b505050565b6104c43382610a2a565b6104e05760405162461bcd60e51b8152600401610414906115e2565b6104b5838383610aa8565b6104b58383836040518060200160405280600081525061060a565b6000818152600260205260408120546001600160a01b0316806102e15760405162461bcd60e51b8152602060048201526018602482015277115490cdcc8c4e881a5b9d985b1a59081d1bdad95b88125160421b6044820152606401610414565b60006001600160a01b0382166105d05760405162461bcd60e51b815260206004820152602960248201527f4552433732313a2061646472657373207a65726f206973206e6f7420612076616044820152683634b21037bbb732b960b91b6064820152608401610414565b506001600160a01b031660009081526003602052604090205490565b6060600180546102f6906115a8565b610606338383610c0c565b5050565b6106143383610a2a565b6106305760405162461bcd60e51b8152600401610414906115e2565b61063c84848484610cda565b50505050565b606061064d8261095a565b60008281526006602052604081208054610666906115a8565b80601f0160208091040260200160405190810160405280929190818152602001828054610692906115a8565b80156106df5780601f106106b4576101008083540402835291602001916106df565b820191906000526020600020905b8154815290600101906020018083116106c257829003601f168201915b5050505050905060006106fd60408051602081019091526000815290565b9050805160000361070f575092915050565b81511561074157808260405160200161072992919061162f565b60405160208183030381529060405292505050919050565b61074a84610d0d565b949350505050565b60078054600091826107638361165e565b919050555061077433600754610d81565b61078060075483610d9b565b505033600090815260086020908152604082206007805482546001810184559285529290932001555490565b6001600160a01b038116600090815260086020908152604080832080548251818502810185019093528083526060949383018282801561080b57602002820191906000526020600020905b8154815260200190600101908083116107f7575b505050505090506000805b825181101561087957846001600160a01b031661084b84838151811061083e5761083e611685565b6020026020010151610506565b6001600160a01b03160361086757816108638161165e565b9250505b806108718161165e565b915050610816565b5060008167ffffffffffffffff811115610895576108956113e0565b6040519080825280602002602001820160405280156108be578160200160208202803683370190505b50905060005b835181101561095157856001600160a01b03166108ec85838151811061083e5761083e611685565b6001600160a01b03160361093f5783818151811061090c5761090c611685565b60200260200101518284806109209061165e565b95508151811061093257610932611685565b6020026020010181815250505b806109498161165e565b9150506108c4565b50949350505050565b6000818152600260205260409020546001600160a01b03166109b95760405162461bcd60e51b8152602060048201526018602482015277115490cdcc8c4e881a5b9d985b1a59081d1bdad95b88125160421b6044820152606401610414565b50565b600081815260046020526040902080546001600160a01b0319166001600160a01b03841690811790915581906109f182610506565b6001600160a01b03167f8c5be1e5ebec7d5bd14f71427d1e84f3dd0314c0f7b2291e5b200ac8c7c3b92560405160405180910390a45050565b600080610a3683610506565b9050806001600160a01b0316846001600160a01b03161480610a7d57506001600160a01b0380821660009081526005602090815260408083209388168352929052205460ff165b8061074a5750836001600160a01b0316610a9684610379565b6001600160a01b031614949350505050565b826001600160a01b0316610abb82610506565b6001600160a01b031614610ae15760405162461bcd60e51b81526004016104149061169b565b6001600160a01b038216610b435760405162461bcd60e51b8152602060048201526024808201527f4552433732313a207472616e7366657220746f20746865207a65726f206164646044820152637265737360e01b6064820152608401610414565b826001600160a01b0316610b5682610506565b6001600160a01b031614610b7c5760405162461bcd60e51b81526004016104149061169b565b600081815260046020908152604080832080546001600160a01b03199081169091556001600160a01b0387811680865260038552838620805460001901905590871680865283862080546001019055868652600290945282852080549092168417909155905184937fddf252ad1be2c89b69c2b068fc378daa952ba7f163c4a11628f55a4df523b3ef91a4505050565b816001600160a01b0316836001600160a01b031603610c6d5760405162461bcd60e51b815260206004820152601960248201527f4552433732313a20617070726f766520746f2063616c6c6572000000000000006044820152606401610414565b6001600160a01b03838116600081815260056020908152604080832094871680845294825291829020805460ff191686151590811790915591519182527f17307eab39ab6107e8899845ad3d59bd9653f200f220920489ca2b5937696c31910160405180910390a3505050565b610ce5848484610aa8565b610cf184848484610e2e565b61063c5760405162461bcd60e51b8152600401610414906116e0565b6060610d188261095a565b6000610d2f60408051602081019091526000815290565b90506000815111610d4f5760405180602001604052806000815250610d7a565b80610d5984610f2f565b604051602001610d6a92919061162f565b6040516020818303038152906040525b9392505050565b610606828260405180602001604052806000815250610fc2565b6000828152600260205260409020546001600160a01b0316610e165760405162461bcd60e51b815260206004820152602e60248201527f45524337323155524953746f726167653a2055524920736574206f66206e6f6e60448201526d32bc34b9ba32b73a103a37b5b2b760911b6064820152608401610414565b60008281526006602052604090206104b58282611780565b60006001600160a01b0384163b15610f2457604051630a85bd0160e11b81526001600160a01b0385169063150b7a0290610e72903390899088908890600401611840565b6020604051808303816000875af1925050508015610ead575060408051601f3d908101601f19168201909252610eaa9181019061187d565b60015b610f0a573d808015610edb576040519150601f19603f3d011682016040523d82523d6000602084013e610ee0565b606091505b508051600003610f025760405162461bcd60e51b8152600401610414906116e0565b805181602001fd5b6001600160e01b031916630a85bd0160e11b14905061074a565b506001949350505050565b60606000610f3c83610ff5565b600101905060008167ffffffffffffffff811115610f5c57610f5c6113e0565b6040519080825280601f01601f191660200182016040528015610f86576020820181803683370190505b5090508181016020015b600019016f181899199a1a9b1b9c1cb0b131b232b360811b600a86061a8153600a8504945084610f9057509392505050565b610fcc83836110cd565b610fd96000848484610e2e565b6104b55760405162461bcd60e51b8152600401610414906116e0565b60008072184f03e93ff9f4daa797ed6e38ed64bf6a1f0160401b83106110345772184f03e93ff9f4daa797ed6e38ed64bf6a1f0160401b830492506040015b6d04ee2d6d415b85acef81000000008310611060576d04ee2d6d415b85acef8100000000830492506020015b662386f26fc10000831061107e57662386f26fc10000830492506010015b6305f5e1008310611096576305f5e100830492506008015b61271083106110aa57612710830492506004015b606483106110bc576064830492506002015b600a83106102e15760010192915050565b6001600160a01b0382166111235760405162461bcd60e51b815260206004820181905260248201527f4552433732313a206d696e7420746f20746865207a65726f20616464726573736044820152606401610414565b6000818152600260205260409020546001600160a01b0316156111885760405162461bcd60e51b815260206004820152601c60248201527f4552433732313a20746f6b656e20616c7265616479206d696e746564000000006044820152606401610414565b6000818152600260205260409020546001600160a01b0316156111ed5760405162461bcd60e51b815260206004820152601c60248201527f4552433732313a20746f6b656e20616c7265616479206d696e746564000000006044820152606401610414565b6001600160a01b038216600081815260036020908152604080832080546001019055848352600290915280822080546001600160a01b0319168417905551839291907fddf252ad1be2c89b69c2b068fc378daa952ba7f163c4a11628f55a4df523b3ef908290a45050565b6001600160e01b0319811681146109b957600080fd5b60006020828403121561128057600080fd5b8135610d7a81611258565b60005b838110156112a657818101518382015260200161128e565b50506000910152565b600081518084526112c781602086016020860161128b565b601f01601f19169290920160200192915050565b602081526000610d7a60208301846112af565b60006020828403121561130057600080fd5b5035919050565b80356001600160a01b038116811461131e57600080fd5b919050565b6000806040838503121561133657600080fd5b61133f83611307565b946020939093013593505050565b60008060006060848603121561136257600080fd5b61136b84611307565b925061137960208501611307565b9150604084013590509250925092565b60006020828403121561139b57600080fd5b610d7a82611307565b600080604083850312156113b757600080fd5b6113c083611307565b9150602083013580151581146113d557600080fd5b809150509250929050565b634e487b7160e01b600052604160045260246000fd5b600067ffffffffffffffff80841115611411576114116113e0565b604051601f8501601f19908116603f01168101908282118183101715611439576114396113e0565b8160405280935085815286868601111561145257600080fd5b858560208301376000602087830101525050509392505050565b6000806000806080858703121561148257600080fd5b61148b85611307565b935061149960208601611307565b925060408501359150606085013567ffffffffffffffff8111156114bc57600080fd5b8501601f810187136114cd57600080fd5b6114dc878235602084016113f6565b91505092959194509250565b6000602082840312156114fa57600080fd5b813567ffffffffffffffff81111561151157600080fd5b8201601f8101841361152257600080fd5b61074a848235602084016113f6565b6020808252825182820181905260009190848201906040850190845b818110156115695783518352928401929184019160010161154d565b50909695505050505050565b6000806040838503121561158857600080fd5b61159183611307565b915061159f60208401611307565b90509250929050565b600181811c908216806115bc57607f821691505b6020821081036115dc57634e487b7160e01b600052602260045260246000fd5b50919050565b6020808252602d908201527f4552433732313a2063616c6c6572206973206e6f7420746f6b656e206f776e6560408201526c1c881bdc88185c1c1c9bdd9959609a1b606082015260800190565b6000835161164181846020880161128b565b83519083019061165581836020880161128b565b01949350505050565b60006001820161167e57634e487b7160e01b600052601160045260246000fd5b5060010190565b634e487b7160e01b600052603260045260246000fd5b60208082526025908201527f4552433732313a207472616e736665722066726f6d20696e636f72726563742060408201526437bbb732b960d91b606082015260800190565b60208082526032908201527f4552433732313a207472616e7366657220746f206e6f6e20455243373231526560408201527131b2b4bb32b91034b6b83632b6b2b73a32b960711b606082015260800190565b601f8211156104b557600081815260208120601f850160051c810160208610156117595750805b601f850160051c820191505b8181101561177857828155600101611765565b505050505050565b815167ffffffffffffffff81111561179a5761179a6113e0565b6117ae816117a884546115a8565b84611732565b602080601f8311600181146117e357600084156117cb5750858301515b600019600386901b1c1916600185901b178555611778565b600085815260208120601f198616915b82811015611812578886015182559484019460019091019084016117f3565b50858210156118305787850151600019600388901b60f8161c191681555b5050505050600190811b01905550565b6001600160a01b0385811682528416602082015260408101839052608060608201819052600090611873908301846112af565b9695505050505050565b60006020828403121561188f57600080fd5b8151610d7a8161125856fea2646970667358221220bd4c8082295019871742b17e4099f693134641d39ec7cbbbe577438be686b10264736f6c63430008130033",
    "sourcePath": "c:/Users/ducvan/Downloads/DOANTOTNGHIEP_DUC/graduation-thesis-be-bl/contracts/NFT.sol",
    "compiler": {
        "name": "solc",
        "version": "0.8.19+commit.7dd6d404"
    },
    "functionHashes": {
        "approve(address,uint256)": "095ea7b3",
        "balanceOf(address)": "70a08231",
        "getApproved(uint256)": "081812fc",
        "getNFTsByOwner(address)": "e2afe8b3",
        "isApprovedForAll(address,address)": "e985e9c5",
        "mint(string)": "d85d3d27",
        "name()": "06fdde03",
        "ownerOf(uint256)": "6352211e",
        "safeTransferFrom(address,address,uint256)": "42842e0e",
        "safeTransferFrom(address,address,uint256,bytes)": "b88d4fde",
        "setApprovalForAll(address,bool)": "a22cb465",
        "supportsInterface(bytes4)": "01ffc9a7",
        "symbol()": "95d89b41",
        "tokenCount()": "9f181b5e",
        "tokenURI(uint256)": "c87b56dd",
        "transferFrom(address,address,uint256)": "23b872dd"
    },
    "gasEstimates": {
        "creation": {
            "codeDepositCost": "1270400",
            "executionCost": "infinite",
            "totalCost": "infinite"
        },
        "external": {
            "approve(address,uint256)": "infinite",
            "balanceOf(address)": "2678",
            "getApproved(uint256)": "4792",
            "getNFTsByOwner(address)": "infinite",
            "isApprovedForAll(address,address)": "infinite",
            "mint(string)": "infinite",
            "name()": "infinite",
            "ownerOf(uint256)": "2605",
            "safeTransferFrom(address,address,uint256)": "infinite",
            "safeTransferFrom(address,address,uint256,bytes)": "infinite",
            "setApprovalForAll(address,bool)": "26750",
            "supportsInterface(bytes4)": "534",
            "symbol()": "infinite",
            "tokenCount()": "2340",
            "tokenURI(uint256)": "infinite",
            "transferFrom(address,address,uint256)": "infinite"
        }
    }
}